:100000000C942A000C947E020C94A5020C944700D8
:100010000C9447000C9447000C9447000C94470044
:100020000C9447000C9447000C9447000C94470034
:100030000C9447000C9447000C9447000C94470024
:100040000C9447000C9447000C94CC020C9447008D
:100050000C94470011241FBECFE5D4E0DEBFCDBF16
:1000600010E0A0E6B0E0ECE5FCE002C005900D92E7
:10007000A436B107D9F710E0A4E6B0E001C01D92A4
:10008000A237B107E1F70E9449000C942C060C94AA
:1000900000000E94AE0480E494E00E94740282E2B8
:1000A00094E00E946F0285E194E00E9479020E9430
:1000B0000E040E947B0380917000813029F40E941D
:1000C000A3040E948B0402C00E947A040E9473045D
:1000D000F0CF813049F0813028F0823039F0833020
:1000E00041F406C06ABB089567BB089564BB0895D8
:1000F00061BB08954423C9F1413009F06EC08130DD
:1001000099F0813030F08230D1F0833009F065C051
:1001100021C02AB381E090E002C0880F991F6A9540
:10012000E2F7282B2ABB089527B381E090E002C0B4
:10013000880F991F6A95E2F7282B27BB089524B3EF
:1001400081E090E002C0880F991F6A95E2F7282BA2
:1001500024BB089521B381E090E002C0880F991F6D
:100160006A95E2F7282B21BB0895813099F0813000
:1001700028F08230D9F0833081F524C02AB381E0A1
:1001800090E002C0880F991F6A95E2F7809582235C
:100190008ABB089527B381E090E002C0880F991FC1
:1001A0006A95E2F78095822387BB089524B381E0A6
:1001B00090E002C0880F991F6A95E2F7809582232C
:1001C00084BB089521B381E090E002C0880F991F9D
:1001D0006A95E2F78095822381BB0895813049F0CA
:1001E000813028F0823039F0833041F406C06BBB97
:1001F000089568BB089565BB089562BB08954423C4
:10020000C9F1413009F06EC0813099F0813030F091
:100210008230D1F0833009F065C021C02BB381E07A
:1002200090E002C0880F991F6A95E2F7282B2BBB3C
:10023000089528B381E090E002C0880F991F6A9565
:10024000E2F7282B28BB089525B381E090E002C097
:10025000880F991F6A95E2F7282B25BB089522B3D2
:1002600081E090E002C0880F991F6A95E2F7282B81
:1002700022BB0895813099F0813028F08230D9F086
:10028000833081F524C02BB381E090E002C0880F59
:10029000991F6A95E2F7809582238BBB089528B356
:1002A00081E090E002C0880F991F6A95E2F780957F
:1002B000822388BB089525B381E090E002C0880FB7
:1002C000991F6A95E2F78095822385BB089522B332
:1002D00081E090E002C0880F991F6A95E2F780954F
:1002E000822382BB0895813051F0813030F082301A
:1002F00041F0833041F080E0089589B3089586B3DA
:10030000089583B3089580B30895813051F081300A
:1003100030F0823041F0833079F080E0089589B385
:1003200003C086B301C083B390E002C09595879562
:100330006A95E2F78170089580B390E002C09595C8
:1003400087956A95E2F781700895813091F0813048
:1003500028F08230C9F0833061F521C02BB381E0F1
:1003600090E002C0880F991F6A95E2F728272BBBFF
:10037000089528B381E090E002C0880F991F6A9524
:10038000E2F7282728BB089525B381E090E002C05A
:10039000880F991F6A95E2F7282725BB089522B395
:1003A00081E090E002C0880F991F6A95E2F7282744
:1003B00022BB0895813091F0813028F08230C9F05D
:1003C000833061F521C02BB381E090E002C0880F3B
:1003D000991F6A95E2F7282B2BBB089528B381E07B
:1003E00090E002C0880F991F6A95E2F7282B28BB7E
:1003F000089525B381E090E002C0880F991F6A95A7
:10040000E2F7282B25BB089522B381E090E002C0DB
:10041000880F991F6A95E2F7282B22BB089582E086
:1004200082B986B7846086BF089584EA86BF06B61F
:1004300007FEFDCF81B1887F8830E1F7089584EA17
:1004400086BF06B607FEFDCF81B1887F8031E1F718
:100450000895880F83B984E886BF06B607FEFDCFEE
:1004600081B1887F8831E1F70895880F816083B971
:1004700084E886BF06B607FEFDCF81B1887F803451
:10048000E1F7089583B984E886BF06B607FEFDCF7D
:1004900081B1887F8832E1F7089584E886BF06B687
:1004A00007FEFDCF83B1089584E986BF089582E0F9
:1004B00060E041E00E947A0082E061E041E00E9459
:1004C0007A0082E080B986B7846086BF089584E0B0
:1004D00088BB8CE082BB80EE8BBF789408959093AC
:1004E000660080936500089590936800809367008C
:1004F000089590936A008093690008951F920F9267
:100500000FB60F9211242F933F934F935F936F93E6
:100510007F938F939F93AF93BF93EF93FF93E0915C
:100520006500F09166000995FF91EF91BF91AF9141
:100530009F918F917F916F915F914F913F912F91FB
:100540000F900FBE0F901F9018951F920F920FB62D
:100550000F9211242F933F934F935F936F937F9349
:100560008F939F93AF93BF93EF93FF93E0916700B7
:10057000F09168000995FF91EF91BF91AF919F9124
:100580008F917F916F915F914F913F912F910F903C
:100590000FBE0F901F9018951F920F920FB60F92DB
:1005A00011242F933F934F935F936F937F938F9378
:1005B0009F93AF93BF93EF93FF93E0916900F09106
:1005C0006A000995FF91EF91BF91AF919F918F9133
:1005D0007F916F915F914F913F912F910F900FBE3F
:1005E0000F901F90189583B7856083BF089583B7D8
:1005F0008E7F83BF83B78D7F83BF83B78B7F83BF9E
:10060000089590E028EE33E0AC01429FC001439F83
:10061000900D529F900D112436E0959587953A954F
:10062000E1F7AA2797FDA095BA2F282F21952093AF
:100630006F0022BF892F9A2FAB2FBB270196A11DD8
:10064000B11D80936B0090936C00A0936D00B093EC
:100650006E00089583B783BF89B7816089BF8FB764
:1006600080688FBF08958EB588608EBD89B7806120
:1006700089BF8FB780688FBF08958EB585608EBDA6
:1006800008958EB58E7F8EBD8EB58D7F8EBD8EB555
:100690008B7F8EBD089590E028EE33E0AC01429F41
:1006A000C001439F900D529F900D1124880F892FF8
:1006B000881F990B90E001979BBD8ABD0895FC01AE
:1006C0008081873410F48B5F80830895FC018081E2
:1006D000883210F085508083089581E063E040E027
:1006E0000E947A0081E063E00E948501882311F076
:1006F00010927000089582E062E040E00E947A006B
:1007000082E062E00E948501813011F480937000E4
:10071000089582E063E041E00E947A0082E063E0B5
:1007200040E00E94FF00089582E063E041E00E9403
:100730007A0082E063E041E00E94FF0008951F9389
:10074000182F0E94150280E50E942902812F0E9425
:1007500042020E941F0280E50E9435020E944D0263
:10076000182F0E945402812F1F9108950F931F93F9
:10077000182F062F0E94150280E50E942902812F62
:100780000E944202802F0E9442020E9454021F9146
:100790000F9108950E945702089582E064E041E0BD
:1007A0000E947A0082E064E040E00E94FF00089529
:1007B00082E064E041E00E947A0082E064E041E08F
:1007C0000E94FF000895D09887E886B980EE87B927
:1007D0000895369A349BFECF85B1089560E020E0FD
:1007E00030E040E050E0E8EAF1E6369A349BFECF94
:1007F00085B1280F311D411D511DCF010197F1F722
:100800006F5F6A3091F7CA01B9012AE030E040E039
:1008100050E00E94EF05CA01B9010895809162007D
:10082000813011F41092620008956091600080E0C0
:1008300090E070E00E94B6031092700081E0809317
:1008400062000895809164008130B1F480E690E008
:100850000E945F030E94B504809160000E94BE0464
:1008600080E29EE429E130E0F9013197F1F7019748
:10087000D9F710926400089581E080936400089590
:10088000809164008130B1F480E690E00E946603BC
:100890000E94B504809160000E94BE0480E29EE444
:1008A00029E130E0F9013197F1F70197D9F710927A
:1008B0006400089581E08093640008950F931F936E
:1008C0000E94DA0504ED10E3C8010197F1F70E94D8
:1008D000B504809160000E94BE04C8010197F1F741
:1008E0001F910F91089580916400813011F40E944E
:1008F0005E0408950E9489030E94CD030E94DA05D8
:1009000008950E94CD030E94940308950E94D80385
:100910000E948903089580916000282F30E0809123
:100920007100482F50E0C9010497481759071CF47B
:100930000E94860408952C5F3F4F2417350714F456
:100940000E94810408950E94EE03609371000E944A
:10095000B504809171000E94BE0408950E94670250
:100960000E94E3030E94CA030895D49AD59AD69AA6
:10097000D79ABC9ABD9ABE9ABF9A0895282F6AE06A
:100980000E94E305943041F1953048F49130C1F074
:10099000913098F09230C1F09330B1F519C0973092
:1009A00039F1983028F49530D9F0963069F51CC0AB
:1009B000983011F1993041F523C088B38F7023C06E
:1009C00088B38F7080611FC088B38F7080621BC036
:1009D00088B38F70806317C088B38F70806413C032
:1009E00088B38F7080650FC088B38F7080660BC02E
:1009F00088B38F70806707C088B38F70806803C02A
:100A000088B38F70806988BB822F6AE00E94E305FB
:100A1000843041F1853048F48130C1F0813098F064
:100A20008230C1F08330B9F519C0873039F1883090
:100A300028F48530D9F0863071F51CC0883011F16A
:100A4000893049F524C08BB38F701FC08BB38F7072
:100A500080611BC08BB38F70806217C08BB38F70A7
:100A6000806313C08BB38F7080640FC08BB38F70A3
:100A700080650BC08BB38F70806607C08BB38F709F
:100A8000806703C08BB38F7080688BBB08958BB376
:100A90008F7080698BBB0895282F6AE00E94E30560
:100AA000943041F1953048F49130C1F0913098F094
:100AB0009230C1F09330B1F519C0973039F19830C8
:100AC00028F49530D9F0963069F51CC0983011F1B2
:100AD000993041F523C088B38F7023C088B38F70DD
:100AE00080611FC088B38F7080621BC088B38F7015
:100AF000806317C088B38F70806413C088B38F7011
:100B000080650FC088B38F7080660BC088B38F700C
:100B1000806707C088B38F70806803C088B38F7008
:100B2000806988BB822F6AE00E94E305843041F12E
:100B3000853048F48130C1F0813098F08230C1F0C6
:100B40008330B9F519C0873039F1883028F4853001
:100B5000D9F0863071F51CC0883011F1893049F523
:100B600024C08BB38F701FC08BB38F7080611BC08C
:100B70008BB38F70806217C08BB38F70806313C08C
:100B80008BB38F7080640FC08BB38F7080650BC088
:100B90008BB38F70806607C08BB38F70806703C084
:100BA0008BB38F7080688BBB08958BB38F70806917
:100BB0008BBB0895D498D598D698D798BC98BD98F3
:100BC000BE98BF980895991B79E004C0991F9617A5
:100BD00008F0961B881F7A95C9F78095089597FBB2
:100BE000092E05260ED057FD04D014D00AD0001CC3
:100BF00038F450954095309521953F4F4F4F5F4FBA
:100C00000895F6F790958095709561957F4F8F4F79
:100C10009F4F0895A1E21A2EAA1BBB1BFD010DC018
:100C2000AA1FBB1FEE1FFF1FA217B307E407F5079C
:100C300020F0A21BB30BE40BF50B661F771F881F78
:100C4000991F1A9469F760957095809590959B010E
:0C0C5000AC01BD01CF010895F894FFCF66
:040C5C003C00010057
:040000050080006215
:00000001FF
